:100000000C94A7000C94C4000C94C4000C94C4007D
:100010000C94C4000C94C4000C94C4000C94C40050
:100020000C94C4000C94C4000C94C4000C94C40040
:100030000C94C4000C94C4000C94C4000C94C40030
:100040000C94C4000C94C4000C94C4000C94C40020
:100050000C94C40000407A10F35A00A0724E1809A4
:100060000010A5D4E80000E87648170000E40B541F
:10007000020000CA9A3B000000E1F50500008096EE
:100080009800000040420F000000A0860100000020
:10009000102700000000E8030000000064000000DA
:1000A00000000A00000000000100000000002C76A3
:1000B000D888DC674F0823DFC1DFAE59E1B1B796BE
:1000C000E5E3E453C63AE651997696E8E6C284261B
:1000D000EB898C9B62ED407C6FFCEFBC9C9F40F2F7
:1000E000BAA56FA5F490055A2AF75C936B6CF96773
:1000F0006DC11BFCE0E40D47FEF520E6B500D0ED38
:10010000902E0300943577050080841E080000209F
:100110004E0A000000C80C333333330F986E12833D
:100120001141EF8D2114893BE65516CFFEE6DB1811
:10013000D1844B381BF77C1D901DA4BBE4242032D6
:1001400084725E228100C9F124ECA1E53D271124CF
:100150001FBECFE5D8E0DEBFCDBF12E0A0E6B0E025
:10016000E8E9FFE602C005900D92A232B107D9F787
:1001700012E0A2E2B2E001C01D92AD33B107E1F797
:100180000E9455170C94CA370C940000EF92FF920E
:100190000F931F937B018C0120E030E040E05FE48F
:1001A0000E94720488238CF0C801B70120E030E07F
:1001B00040E05FE40E943E020E94D2049B01AC0139
:1001C000205030404040504806C0C801B7010E944E
:1001D000D2049B01AC01B901CA011F910F91FF909C
:1001E000EF900895A0E0B0E0E8EFF0E00C94F33475
:1001F000DC012B01FA019C91923008F439C1EB012A
:100200008881823008F433C1943069F4843009F075
:100210002FC111969C9111978981981709F428C1D3
:10022000AAE1B1E025C1843009F421C18230A9F4EA
:10023000923009F01DC19A01AD0188E0EA010990F0
:10024000AE01E90109929E018150C1F7E201898165
:1002500011969C918923818308C1923009F407C1CA
:1002600012962D903C901397EB018A819B811496F6
:10027000AD90BD90CD90DC901797EC80FD800E8105
:100280001F819101281B390BB90137FF04C0662774
:100290007727621B730B603271050CF061C0121678
:1002A00013066CF537014801062E04C09694879416
:1002B000779467940A94D2F721E030E040E050E070
:1002C00004C0220F331F441F551F6A95D2F72150D7
:1002D0003040404050402E213F21402351232115E2
:1002E00031054105510521F021E030E040E050E0CA
:1002F00079018A01E628F728082919293CC0232B0F
:10030000D1F1260E371E35014601062E04C0969403
:100310008794779467940A94D2F721E030E040E024
:1003200050E004C0220F331F441F551F6A95D2F7B7
:1003300021503040404050402A213B214C215D213A
:10034000211531054105510521F021E030E040E063
:1003500050E059016A01A628B728C828D9280BC03F
:10036000821593052CF01C01AA24BB24650103C04F
:10037000EE24FF24870111969C91D20111968C9155
:10038000981709F445C0992339F0A80197012A1953
:100390003B094C095D0906C0A60195012E193F09CC
:1003A000400B510B57FD08C01182338222822483F7
:1003B0003583468357831DC081E081833382228247
:1003C00088279927DC01821B930BA40BB50B848330
:1003D0009583A683B7830DC0220F331F441F551F7B
:1003E0002483358346835783828193810197938346
:1003F00082832481358146815781DA01C9010197C1
:10040000A109B1098F5F9F4FAF4FBF4328F30BC0C6
:10041000918333822282EA0CFB1C0C1D1D1DE48299
:10042000F5820683178383E08083248135814681AA
:10043000578157FF1AC0C901AA2797FDA095BA2F67
:1004400081709070A070B07056954795379527953C
:10045000822B932BA42BB52B84839583A683B78300
:1004600082819381019693838283DF0101C0D2014F
:10047000CD01CDB7DEB7E2E10C940F35A0E2B0E0DC
:10048000E4E4F2E00C94FF3469837A838B839C83E9
:100490002D833E834F835887E9E0EE2EF12CEC0E3E
:1004A000FD1ECE010196B7010E94C3068E010F5EAC
:1004B0001F4FCE010596B8010E94C3068A8991E0BC
:1004C00089278A8BC701B801AE01475E5F4F0E9442
:1004D000F2000E94EE05A096E6E00C941B35A0E227
:1004E000B0E0E5E7F2E00C94FF3469837A838B8314
:1004F0009C832D833E834F835887F9E0EF2EF12CA8
:10050000EC0EFD1ECE010196B7010E94C3068E01BE
:100510000F5E1F4FCE010596B8010E94C306C701AA
:10052000B801AE01475E5F4F0E94F2000E94EE05E7
:10053000A096E6E00C941B35A0E2B0E0E2EAF2E01F
:100540000C94F33469837A838B839C832D833E835D
:100550004F835887CE010196BE01675F7F4F0E948F
:10056000C306CE010596BE016F5E7F4F0E94C30693
:100570009985923088F089898230C8F0943019F4D6
:10058000823051F404C0843029F4923081F48AE13D
:1005900091E0C6C0923049F420E09A858A89981388
:1005A00021E02A87CE010996BBC0823049F420E0C1
:1005B0009A858A89981321E02A8BCE014196B0C092
:1005C0002D843E844F8458886D887E888F88988CCF
:1005D000EE24FF248701AA24BB24650140E050E0FB
:1005E00060E070E0E0E0F0E0C10181709070892B84
:1005F000E9F0E60CF71C081D191D9A01AB012A0D44
:100600003B1D4C1D5D1D80E090E0A0E0B0E0E614D5
:10061000F7040805190520F481E090E0A0E0B0E0BF
:10062000BA01A901480F591F6A1F7B1FAA0CBB1CE6
:10063000CC1CDD1C97FE08C081E090E0A0E0B0E09B
:10064000A82AB92ACA2ADB2A3196E032F10549F0F4
:10065000660C771C881C991C5694479437942794F1
:10066000C3CFFA85EA892B893C898B859C85280F25
:10067000391F2E5F3F4F17C0CA0181709070892BC0
:1006800061F016950795F794E79480E090E0A0E07C
:10069000B0E8E82AF92A0A2B1B2B7695679557951F
:1006A00047952F5F3F4F77FDE7CF0CC0440F551F95
:1006B000661F771F17FD4160EE0CFF1C001F111F06
:1006C00021503040403090E0590790E0690790E4B5
:1006D000790760F32B8F3C8FDB01CA018F77907015
:1006E000A070B07080349105A105B10561F447FD9B
:1006F0000AC0E114F1040105110529F0405C5F4FC7
:100700006F4F7F4F40781A8EFE1711F081E08A8F6D
:100710004D8F5E8F6F8F78A383E0898FCE014996CE
:100720000E94EE05A096E2E10C940F35A8E1B0E03E
:10073000ECE9F3E00C94FB3469837A838B839C832C
:100740002D833E834F835887B9E0EB2EF12CEC0EBE
:10075000FD1ECE010196B7010E94C3068E010F5EF9
:100760001F4FCE010596B8010E94C306298522308D
:1007700008F47EC03989323010F4B8017CC08A8513
:100780009A8989278A87243011F0223031F423177F
:1007900009F06EC06AE171E06EC0343039F41D8634
:1007A0001E861F86188A1C861B8604C0323021F4E0
:1007B00084E08987B7015FC02B853C858B899C8944
:1007C000281B390B3C872B87ED84FE840F85188905
:1007D000AD88BE88CF88D88CEA14FB040C051D05B3
:1007E00040F4EE0CFF1C001F111F215030403C87CD
:1007F0002B8720E030E040E050E080E090E0A0E097
:10080000B0E460E070E0EA14FB040C051D0540F064
:10081000282B392B4A2B5B2BEA18FB080C091D09E6
:10082000B695A79597958795EE0CFF1C001F111F95
:100830006F5F7F4F6F31710531F7DA01C9018F7733
:100840009070A070B07080349105A105B10561F47D
:1008500027FD0AC0E114F1040105110529F0205C0F
:100860003F4F4F4F5F4F20782D873E874F87588BE4
:10087000BE01675F7F4FCB010E94EE056896EAE0FC
:100880000C941735A8E1B0E0E8E4F4E00C94FF34F0
:1008900069837A838B839C832D833E834F83588720
:1008A00089E0E82EF12CEC0EFD1ECE010196B70179
:1008B0000E94C3068E010F5E1F4FCE010596B80140
:1008C0000E94C3068985823040F08989823028F0F1
:1008D000C701B8010E943B0701C08FEF6896E6E0B0
:1008E0000C941B35A8E1B0E0E8E7F4E00C94FF3489
:1008F00069837A838B839C832D833E834F835887C0
:1009000089E0E82EF12CEC0EFD1ECE010196B70118
:100910000E94C3068E010F5E1F4FCE010596B801DF
:100920000E94C3068985823040F08989823028F090
:10093000C701B8010E943B0701C08FEF6896E6E04F
:100940000C941B35A8E1B0E0E8EAF4E00C94FF3425
:1009500069837A838B839C832D833E834F8358875F
:1009600089E0E82EF12CEC0EFD1ECE010196B701B8
:100970000E94C3068E010F5E1F4FCE010596B8017F
:100980000E94C3068985823040F08989823028F030
:10099000C701B8010E943B0701C081E06896E6E00C
:1009A0000C941B35ACE0B0E0E8EDF4E00C940335BA
:1009B00069837A838B839C83CE010196BE016B5F32
:1009C0007F4F0E94C3068D81823061F1823050F1E9
:1009D000843021F48E81882351F12EC02F813885F7
:1009E00037FD20C06E812F3131051CF06623F9F0F0
:1009F00023C08EE190E0821B930B29853A854B85BD
:100A00005C8504C056954795379527958A95D2F70A
:100A10006623B1F050954095309521953F4F4F4F4B
:100A20005F4F0EC020E030E040E050E009C02FEF03
:100A30003FEF4FEF5FE704C020E030E040E050E8D8
:100A4000B901CA012C96E2E00C941F35A8E0B0E091
:100A5000ECE2F5E00C94FB347B018C01611571052F
:100A60008105910519F482E0898360C083E0898360
:100A70008EE1C82ED12CDC82CB82ED82FE820F83E8
:100A80001887C801B7010E949F05FC013197F7FF45
:100A90003BC0222733272E1B3F0B57016801022E34
:100AA00004C0D694C794B794A7940A94D2F740E0B0
:100AB00050E060E070E081E090E0A0E0B0E004C0D1
:100AC000880F991FAA1FBB1F2A95D2F70197A1096A
:100AD000B1098E219F21A023B1230097A105B10563
:100AE00021F041E050E060E070E04A295B296C2988
:100AF0007D294D835E836F8378878EE190E08E1B26
:100B00009F0B9C838B8312C0309781F00E2E04C004
:100B1000EE0CFF1C001F111F0A94D2F7ED82FE821B
:100B20000F831887CE1ADF0ADC82CB821A82CE01AD
:100B300001960E94EE052896EAE00C941735EF9294
:100B4000FF920F931F937B018C0180E0E81680E0F9
:100B5000F80681E0080780E0180788F48FEFE816B0
:100B6000F1040105110531F028F088E090E0A0E0E3
:100B7000B0E017C080E090E0A0E0B0E012C080E0FC
:100B8000E81680E0F80680E0080781E0180728F002
:100B900088E190E0A0E0B0E004C080E190E0A0E057
:100BA000B0E020E230E040E050E0281B390B4A0B77
:100BB0005B0B04C016950795F794E7948A95D2F7D6
:100BC000F701EE5DFE4F8081281B31094109510973
:100BD000C9011F910F91FF90EF900895DF92EF925E
:100BE000FF920F931F93FC01E480F580068117812B
:100BF000D1808081823048F480E090E0A0E1B0E0D4
:100C0000E82AF92A0A2B1B2BA5C0843009F49FC0BF
:100C1000823021F4EE24FF24870105C0E114F104A1
:100C20000105110519F4E0E0F0E096C062817381DE
:100C30009FEF623879070CF05BC022E83FEF261B7C
:100C4000370B2A3131052CF020E030E040E050E055
:100C50002AC0B801A701022E04C076956795579562
:100C600047950A94D2F781E090E0A0E0B0E004C09C
:100C7000880F991FAA1FBB1F2A95D2F70197A109B8
:100C8000B1098E219F21A023B1230097A105B105B1
:100C900021F081E090E0A0E0B0E09A01AB01282BC8
:100CA000392B4A2B5B2BDA01C9018F779070A0702A
:100CB000B07080349105A105B10539F427FF09C052
:100CC000205C3F4F4F4F5F4F04C0215C3F4F4F4F61
:100CD0005F4FE0E0F0E02030A0E03A07A0E04A07F4
:100CE000A0E45A0710F0E1E0F0E079018A0127C0A2
:100CF0006038710564F5FB01E158FF4FD801C70169
:100D00008F779070A070B07080349105A105B10507
:100D100039F4E7FE0DC080E490E0A0E0B0E004C04C
:100D20008FE390E0A0E0B0E0E80EF91E0A1F1B1F61
:100D300017FF05C016950795F794E794319687E05D
:100D400016950795F794E7948A95D1F705C0EE2498
:100D5000FF248701EFEFF0E06E2F67956627679518
:100D6000902F9F77D794DD24D7948E2F8695492F87
:100D7000462B582F5D29B701CA011F910F91FF9093
:100D8000EF90DF900895FC01DB01408151812281C9
:100D9000622F6F7770E0221F2227221F9381892FF5
:100DA000880F822B282F30E0991F9927991F1196C1
:100DB0009C93119721153105A9F541155105610540
:100DC000710511F482E037C082E89FEF13969C937F
:100DD0008E9312979A01AB0167E0220F331F441FD5
:100DE000551F6A95D1F783E08C930DC0220F331FF6
:100DF000441F551F12968D919C911397019713963E
:100E00009C938E931297203080E0380780E048074B
:100E100080E4580758F314962D933D934D935C93BB
:100E2000179708952F3F310579F441155105610554
:100E3000710519F484E08C93089564FF03C081E088
:100E40008C9312C01C9210C02F57304013963C93C5
:100E50002E93129783E08C9387E0440F551F661FF3
:100E6000771F8A95D1F7706414964D935D936D93B7
:100E70007C93179708951F93DC01FB019C9192309E
:100E800008F447C08081823008F443C0943051F4A4
:100E900011961C91843099F58181682F70E0611B57
:100EA00071093FC0843021F0923031F48230B9F1C1
:100EB0008181882389F12DC011961C911197823070
:100EC000F1F081811817D9F412962D913C91139766
:100ED000828193818217930794F028173907BCF019
:100EE00014968D919D910D90BC91A02D24813581FA
:100EF00046815781281739074A075B0718F41123E1
:100F000041F00AC082179307A407B50740F41123E4
:100F100019F061E070E005C06FEF7FEF02C060E0A4
:100F200070E0CB011F910895DF93CF9300D0CDB730
:100F3000DEB79A838983A7E2B0E0E7E2F0E0808140
:100F4000282F2F73E981FA818081882F90E0002477
:100F5000969587950794969587950794982F802D59
:100F6000822B8C93A6E2B0E0E6E2F0E0808180681C
:100F70008C93A6E2B0E0E6E2F0E08081877F8C937C
:100F8000A6E2B0E0E6E2F0E08081982F987FE98168
:100F9000FA818181892B8C930F900F90CF91DF91F3
:100FA0000895DF93CF930F92CDB7DEB78983A7E281
:100FB000B0E0E7E2F0E08081982F907E89818F7128
:100FC000892B8C93A6E2B0E0E6E2F0E080818064B9
:100FD0008C93E6E2F0E08081882F90E08071907041
:100FE0000097B9F3A6E2B0E0E6E2F0E080818F7E00
:100FF0008C93E4E2F0E0808191810F90CF91DF91BA
:101000000895DF93CF9300D000D00F92CDB7DEB715
:1010100089836A834B838A81883008F0D5C08981AF
:10102000843008F0D1C08981282F30E03D832C83A3
:101030008C819D818130910509F443C02C813D81D3
:10104000223031052CF48C819D81009771F0BCC059
:101050002C813D812230310509F45FC08C819D8156
:101060008330910509F485C0AFC08B818130A1F434
:10107000AAE3B0E0EAE3F0E08081482F8A81282FDC
:1010800030E081E090E0022E02C0880F991F0A94A0
:10109000E2F7842B8C9398C0AAE3B0E0EAE3F0E097
:1010A0008081482F8A81282F30E081E090E0022E55
:1010B00002C0880F991F0A94E2F7809584238C93CD
:1010C00083C08B818130A1F4A7E3B0E0E7E3F0E0D7
:1010D0008081482F8A81282F30E081E090E0022E25
:1010E00002C0880F991F0A94E2F7842B8C936CC07E
:1010F000A7E3B0E0E7E3F0E08081482F8A81282F62
:1011000030E081E090E0022E02C0880F991F0A941F
:10111000E2F7809584238C9357C08B818130A1F4B2
:10112000A4E3B0E0E4E3F0E08081482F8A81282F37
:1011300030E081E090E0022E02C0880F991F0A94EF
:10114000E2F7842B8C9340C0A4E3B0E0E4E3F0E04A
:101150008081482F8A81282F30E081E090E0022EA4
:1011600002C0880F991F0A94E2F7809584238C931C
:101170002BC08B818130A1F4A1E3B0E0E1E3F0E08A
:101180008081482F8A81282F30E081E090E0022E74
:1011900002C0880F991F0A94E2F7842B8C9314C025
:1011A000A1E3B0E0E1E3F0E08081482F8A81282FBD
:1011B00030E081E090E0022E02C0880F991F0A946F
:1011C000E2F7809584238C930F900F900F900F90EF
:1011D0000F90CF91DF910895DF93CF9300D000D08F
:1011E0000F92CDB7DEB789836A834B838A818830BB
:1011F00008F0D5C08981843008F0D1C08981282FBA
:1012000030E03D832C838C819D818130910509F4F0
:1012100043C02C813D81223031052CF48C819D818D
:10122000009771F0BCC02C813D812230310509F45A
:101230005FC08C819D818330910509F485C0AFC06A
:101240008B818130A1F4ABE3B0E0EBE3F0E080818F
:10125000482F8A81282F30E081E090E0022E02C0E2
:10126000880F991F0A94E2F7842B8C9398C0ABE304
:10127000B0E0EBE3F0E08081482F8A81282F30E056
:1012800081E090E0022E02C0880F991F0A94E2F7D5
:10129000809584238C9383C08B818130A1F4A8E353
:1012A000B0E0E8E3F0E08081482F8A81282F30E029
:1012B00081E090E0022E02C0880F991F0A94E2F7A5
:1012C000842B8C936CC0A8E3B0E0E8E3F0E080816D
:1012D000482F8A81282F30E081E090E0022E02C062
:1012E000880F991F0A94E2F7809584238C9357C046
:1012F0008B818130A1F4A5E3B0E0E5E3F0E08081EB
:10130000482F8A81282F30E081E090E0022E02C031
:10131000880F991F0A94E2F7842B8C9340C0A5E3B1
:10132000B0E0E5E3F0E08081482F8A81282F30E0AB
:1013300081E090E0022E02C0880F991F0A94E2F724
:10134000809584238C932BC08B818130A1F4A2E300
:10135000B0E0E2E3F0E08081482F8A81282F30E07E
:1013600081E090E0022E02C0880F991F0A94E2F7F4
:10137000842B8C9314C0A2E3B0E0E2E3F0E0808120
:10138000482F8A81282F30E081E090E0022E02C0B1
:10139000880F991F0A94E2F7809584238C930F900D
:1013A0000F900F900F900F90CF91DF910895DF93E2
:1013B000CF9300D000D00F92CDB7DEB78A836B8376
:1013C00019828B81883008F084C08A81843008F0CB
:1013D00080C08A81282F30E03D832C834C815D8141
:1013E0004130510579F18C819D818230910534F431
:1013F0002C813D812115310569F06BC04C815D81E7
:1014000042305105B9F18C819D818330910509F4F9
:1014100049C05FC0E9E3F0E08081282F30E08B8194
:10142000882F90E0A90102C0559547958A95E2F76B
:10143000CA0181709070882319F081E0898349C0C6
:10144000198247C0E6E3F0E08081282F30E08B81ED
:10145000882F90E0A90102C0559547958A95E2F73B
:10146000CA0181709070882319F081E0898331C0AE
:1014700019822FC0E3E3F0E08081282F30E08B81D8
:10148000882F90E0A90102C0559547958A95E2F70B
:10149000CA0181709070882319F081E0898319C096
:1014A000198217C0E0E3F0E08081282F30E08B81C3
:1014B000882F90E0A90102C0559547958A95E2F7DB
:1014C000CA0181709070882319F081E0898301C07E
:1014D000198289810F900F900F900F900F90CF91EC
:1014E000DF910895DF93CF9300D000D0CDB7DEB762
:1014F00089836A838981843090F58981282F30E03F
:101500003C832B838B819C8181309105D1F02B8191
:101510003C81223031052CF48B819C81009761F055
:101520001EC02B813C812230310581F08B819C8152
:101530008330910581F013C0EAE3F0E08A81808373
:101540000EC0E7E3F0E08A81808309C0E4E3F0E0C5
:101550008A81808304C0E1E3F0E08A8180830F9078
:101560000F900F900F90CF91DF910895DF93CF935D
:1015700000D000D0CDB7DEB789836A8389818430FB
:1015800090F58981282F30E03C832B838B819C81CF
:1015900081309105D1F02B813C81223031052CF432
:1015A0008B819C81009761F01EC02B813C81223091
:1015B000310581F08B819C818330910581F013C0CE
:1015C000EBE3F0E08A8180830EC0E8E3F0E08A81FB
:1015D000808309C0E5E3F0E08A81808304C0E2E310
:1015E000F0E08A8180830F900F900F900F90CF9141
:1015F000DF910895DF93CF9300D000D0CDB7DEB751
:101600008A8319828A81843090F58A81282F30E07C
:101610003C832B838B819C8181309105D1F02B8180
:101620003C81223031052CF48B819C81009761F044
:101630001EC02B813C812230310581F08B819C8141
:101640008330910581F013C0E9E3F0E08081898364
:101650000EC0E6E3F0E08081898309C0E3E3F0E0B7
:101660008081898304C0E0E3F0E0808189838981FF
:101670000F900F900F900F90CF91DF910895DF930F
:10168000CF93CDB7DEB761970FB6F894DEBF0FBE2C
:10169000CDBF83E060E040E00E94010883E061E0AC
:1016A00040E00E94010883E062E040E00E940108FF
:1016B00083E063E040E00E94010883E064E040E0F2
:1016C0000E94010883E065E040E00E94010883E099
:1016D00066E040E00E94010883E067E040E00E948D
:1016E00001081F86A5C083E06F8541E00E940108C4
:1016F00083E06F8540E00E94EC08188A1CC088894E
:10170000982F9C5F83E0692F0E94D709882381F47A
:101710008F85882F90E0880F991F880F991F982F29
:101720008889890F8F5F0E94250C898B898984C0E5
:1017300088898F5F888B8889843008F383E06F8580
:1017400040E00E94010880E090E0A0EAB0E48B87CE
:101750009C87AD87BE876B857C858D859E8520E0C7
:1017600030E04AE753E40E949C02DC01CB018F8306
:101770009887A987BA876F81788589859A8520E0BF
:1017800030E040E85FE30E94A20488232CF481E06B
:1017900090E09E838D833FC06F81788589859A858F
:1017A00020E03FEF4FE757E40E94420418164CF543
:1017B0006B857C858D859E8520E030E040E251E49C
:1017C0000E949C02DC01CB01BC01CD010E94C6003D
:1017D000DC01CB019E838D830FC089E190E09C8367
:1017E0008B838B819C810197F1F79C838B838D8107
:1017F0009E8101979E838D838D819E81009769F7DD
:1018000014C06F81788589859A850E94C600DC01A5
:10181000CB019E838D838D819E819A83898389816B
:101820009A810197F1F79A8389838F858F5F8F87DC
:101830008F85843008F457CF61960FB6F894DEBFD9
:101840000FBECDBFCF91DF910895DF93CF9300D02E
:1018500000D0CDB7DEB78A8319828A81282F30E085
:101860003C832B838B819C818830910509F470C067
:101870002B813C81293031055CF58B819C81843042
:10188000910509F459C02B813C81253031059CF428
:101890008B819C818230910509F448C02B813C8169
:1018A000233031050CF045C08B819C81813091053E
:1018B00009F439C067C02B813C812630310509F419
:1018C00041C08B819C81873091050CF03EC037C0B0
:1018D0002B813C812C30310509F446C08B819C81E1
:1018E0008D3091055CF42B813C812A303105B1F1BA
:1018F0008B819C818B309105A4F52DC02B813C817F
:101900002E303105B9F18B819C818E3091057CF1AF
:101910002B813C812F30310579F18B819C81803185
:10192000910569F12FC081E089832EC082E089830F
:101930002BC083E0898328C081E4898325C084E0AB
:10194000898322C085E089831FC086E089831CC00B
:1019500082E4898319C087E0898316C088E089837F
:1019600013C089E0898310C083E489830DC08AE2B3
:1019700089830AC0198208C083E2898305C084E490
:10198000898302C08A81898389810F900F900F908B
:101990000F90CF91DF910895DF93CF93CDB7DEB74E
:1019A0002E970FB6F894DEBF0FBECDBF82E060E089
:1019B00041E00E94010882E061E041E00E940108EC
:1019C00080E090E0A0EAB1E48B879C87AD87BE877A
:1019D0006B857C858D859E8520E030E04AE753E469
:1019E0000E949C02DC01CB018F839887A987BA876C
:1019F0006F81788589859A8520E030E040E85FE353
:101A00000E94A20488232CF481E090E09E838D83C1
:101A10003FC06F81788589859A8520E03FEF4FE749
:101A200057E40E94420418164CF56B857C858D8521
:101A30009E8520E030E040E251E40E949C02DC01FF
:101A4000CB01BC01CD010E94C600DC01CB019E830D
:101A50008D830FC089E190E09C838B838B819C8177
:101A60000197F1F79C838B838D819E8101979E83E3
:101A70008D838D819E81009769F714C06F81788571
:101A800089859A850E94C600DC01CB019E838D83E7
:101A90008D819E819A83898389819A810197F1F74B
:101AA0009A83898381E060E041E00E94010881E03F
:101AB00061E041E00E94010881E062E041E00E94B3
:101AC000010881E063E041E00E94010883E30E9495
:101AD0007E0D82E30E947E0D88E20E947E0D8CE0E6
:101AE0000E947E0D81E00E947E0D2E960FB6F89426
:101AF000DEBF0FBECDBFCF91DF9108950F931F932F
:101B0000DF93CF93CDB7DEB7C356D0400FB6F8946E
:101B1000DEBF0FBECDBFFE01ED59FF4F808382E0D7
:101B200060E040E00E94EC08FE01E15AFF4F80E0D7
:101B300090E0A0E8BFE380839183A283B3838E010A
:101B4000055A1F4FFE01E15AFF4F6081718182816A
:101B5000938120E030E04AE753E40E949C02DC01DC
:101B6000CB01F80180839183A283B383FE01E55A00
:101B7000FF4F608171818281938120E030E040E8F5
:101B80005FE30E94A204882344F4FE01E75AFF4F5A
:101B900081E090E09183808364C0FE01E55AFF4FAD
:101BA000608171818281938120E03FEF4FE757E4AC
:101BB0000E94420418160CF043C0FE01E15AFF4F88
:101BC000608171818281938120E030E040E251E4C4
:101BD0000E949C02DC01CB018E01075A1F4FBC0101
:101BE000CD010E94C600DC01CB01F8019183808306
:101BF0001FC0FE01E95AFF4F89E190E09183808385
:101C0000FE01E95AFF4F808191810197F1F7FE01B2
:101C1000E95AFF4F91838083DE01A75ABF4FFE012F
:101C2000E75AFF4F80819181019711969C938E9383
:101C3000FE01E75AFF4F808191810097D1F627C0BE
:101C40008E01075A1F4FFE01E55AFF4F60817181D7
:101C5000828193810E94C600DC01CB01F80191834F
:101C60008083DE01AB5ABF4FFE01E75AFF4F8081F0
:101C700091818D939C93FE01EB5AFF4F808191815E
:101C80000197F1F7FE01EB5AFF4F9183808382E0C9
:101C900061E041E00E94EC08FE01EF5AFF4F80E056
:101CA00090E0A0E8BFE380839183A283B3838E0199
:101CB000035B1F4FFE01EF5AFF4F608171818281EC
:101CC000938120E030E04AE753E40E949C02DC016B
:101CD000CB01F80180839183A283B383FE01E35B90
:101CE000FF4F608171818281938120E030E040E884
:101CF0005FE30E94A204882344F4FE01E55BFF4FEA
:101D000081E090E09183808364C0FE01E35BFF4F3C
:101D1000608171818281938120E03FEF4FE757E43A
:101D20000E94420418160CF043C0FE01EF5AFF4F08
:101D3000608171818281938120E030E040E251E452
:101D40000E949C02DC01CB018E01055B1F4FBC0190
:101D5000CD010E94C600DC01CB01F8019183808394
:101D60001FC0FE01E75BFF4F89E190E09183808314
:101D7000FE01E75BFF4F808191810197F1F7FE0142
:101D8000E75BFF4F91838083DE01A55BBF4FFE01C0
:101D9000E55BFF4F80819181019711969C938E9313
:101DA000FE01E55BFF4F808191810097D1F627C04E
:101DB0008E01055B1F4FFE01E35BFF4F6081718168
:101DC000828193810E94C600DC01CB01F8019183DE
:101DD0008083DE01A95BBF4FFE01E55BFF4F808181
:101DE00091818D939C93FE01E95BFF4F80819181EE
:101DF0000197F1F7FE01E95BFF4F91838083FE01BC
:101E0000ED59FF4F8081882F90E0807190709595FB
:101E10008795959587959595879595958795982F0D
:101E200081E060E0492F0E94EC08FE01ED59FF4F70
:101E30008081882F90E08072907095958795959518
:101E40008795959587959595879595958795982FDD
:101E500081E061E0492F0E94EC08FE01ED59FF4F3F
:101E60008081882F90E080749070082E892F000C5C
:101E7000881F990B000C881F991F982F81E062E042
:101E8000492F0E94EC08FE01ED59FF4F8081982FE9
:101E9000991F9927991F81E063E0492F0E94EC0860
:101EA000FE01ED5BFF4F80E090E0A0E8BFE38083A0
:101EB0009183A283B3838E01015C1F4FFE01ED5B12
:101EC000FF4F608171818281938120E030E04AE799
:101ED00053E40E949C02DC01CB01F80180839183D2
:101EE000A283B383FE01FF96608171818281938119
:101EF00020E030E040E85FE30E94A20488232CF455
:101F000081E090E09EAF8DAF46C0FE01FF966081FC
:101F100071818281938120E03FEF4FE757E40E9477
:101F20004204181664F5FE01ED5BFF4F608171817C
:101F30008281938120E030E040E251E40E949C02E3
:101F4000DC01CB01BC01CD010E94C600DC01CB014C
:101F50009EAF8DAF0FC089E190E09CAF8BAF8BAD92
:101F60009CAD0197F1F79CAF8BAF8DAD9EAD019706
:101F70009EAF8DAF8DAD9EAD009769F716C0FE0187
:101F8000FF9660817181828193810E94C600DC018D
:101F9000CB019EAF8DAF8DAD9EAD9AAF89AF89ADB0
:101FA0009AAD0197F1F79AAF89AF82E061E040E026
:101FB0000E94EC0880E090E0A0E8BFE38DAB9EAB10
:101FC000AFABB8AF6DA97EA98FA998AD20E030E086
:101FD0004AE753E40E949C02DC01CB0189AB9AAB37
:101FE000ABABBCAB69A97AA98BA99CA920E030E076
:101FF00040E85FE30E94A20488232CF481E090E093
:1020000098AB8FA73FC069A97AA98BA99CA920E0AA
:102010003FEF4FE757E40E94420418164CF56DA9B4
:102020007EA98FA998AD20E030E040E251E40E9403
:102030009C02DC01CB01BC01CD010E94C600DC0189
:10204000CB0198AB8FA70FC089E190E09EA78DA729
:102050008DA59EA50197F1F79EA78DA78FA598A99D
:10206000019798AB8FA78FA598A9009769F714C01F
:1020700069A97AA98BA99CA90E94C600DC01CB01A1
:1020800098AB8FA78FA598A99CA78BA78BA59CA57C
:102090000197F1F79CA78BA782E061E041E00E94E5
:1020A000EC0880E090E0A0E8BFE38FA398A7A9A781
:1020B000BAA76FA178A589A59AA520E030E04AE7E4
:1020C00053E40E949C02DC01CB018BA39CA3ADA333
:1020D000BEA36BA17CA18DA19EA120E030E040E8D1
:1020E0005FE30E94A20488232CF481E090E09AA38D
:1020F00089A33FC06BA17CA18DA19EA120E03FEFF1
:102100004FE757E40E94420418164CF56FA178A5DA
:1021100089A59AA520E030E040E251E40E949C02AB
:10212000DC01CB01BC01CD010E94C600DC01CB016A
:102130009AA389A30FC089E190E098A38F8F8F8D18
:1021400098A10197F1F798A38F8F89A19AA1019780
:102150009AA389A389A19AA1009769F714C06BA1DA
:102160007CA18DA19EA10E94C600DC01CB019AA397
:1021700089A389A19AA19E8F8D8F8D8D9E8D0197A8
:10218000F1F79E8F8D8FFE01ED59FF4F8081982FC3
:10219000917081E060E0492F0E94EC08FE01ED594A
:1021A000FF4F8081882F90E0827090709595879581
:1021B000982F81E061E0492F0E94EC08FE01ED5963
:1021C000FF4F8081882F90E084709070959587955F
:1021D00095958795982F81E062E0492F0E94EC0841
:1021E000FE01ED59FF4F8081882F90E0887090703C
:1021F000959587959595879595958795982F81E0E5
:1022000063E0492F0E94EC0880E090E0A0E8BFE383
:10221000898F9A8FAB8FBC8F698D7A8D8B8D9C8DBA
:1022200020E030E04AE753E40E949C02DC01CB014D
:102230008D8B9E8BAF8BB88F6D897E898F89988DA2
:1022400020E030E040E85FE30E94A20488232CF401
:1022500081E090E09C8B8B8B3FC06D897E898F895C
:10226000988D20E03FEF4FE757E40E944204181694
:102270004CF5698D7A8D8B8D9C8D20E030E040E2AD
:1022800051E40E949C02DC01CB01BC01CD010E9403
:10229000C600DC01CB019C8B8B8B0FC089E190E0E9
:1022A0009A8B898B89899A890197F1F79A8B898B07
:1022B0008B899C8901979C8B8B8B8B899C89009740
:1022C00069F714C06D897E898F89988D0E94C60038
:1022D000DC01CB019C8B8B8B8B899C89988B8F87A6
:1022E0008F8598890197F1F7988B8F8782E061E05D
:1022F00040E00E94EC0880E090E0A0E8BFE38B871C
:102300009C87AD87BE876B857C858D859E8520E00B
:1023100030E04AE753E40E949C02DC01CB018F834A
:102320009887A987BA876F81788589859A8520E003
:1023300030E040E85FE30E94A20488232CF481E0AF
:1023400090E09E838D833FC06F81788589859A85D3
:1023500020E03FEF4FE757E40E94420418164CF587
:102360006B857C858D859E8520E030E040E251E4E0
:102370000E949C02DC01CB01BC01CD010E94C60081
:10238000DC01CB019E838D830FC089E190E09C83AB
:102390008B838B819C810197F1F79C838B838D814B
:1023A0009E8101979E838D838D819E81009769F721
:1023B00014C06F81788589859A850E94C600DC01EA
:1023C000CB019E838D838D819E819A8389838981B0
:1023D0009A810197F1F79A838983CD59DF4F0FB620
:1023E000F894DEBF0FBECDBFCF91DF911F910F914B
:1023F00008950F931F93DF93CF93CDB7DEB7C356E6
:10240000D0400FB6F894DEBF0FBECDBFFE01ED5930
:10241000FF4F808382E060E041E00E94EC08FE0113
:10242000E15AFF4F80E090E0A0E8BFE38083918312
:10243000A283B3838E01055A1F4FFE01E15AFF4F5D
:10244000608171818281938120E030E04AE753E42A
:102450000E949C02DC01CB01F80180839183A2835E
:10246000B383FE01E55AFF4F6081718182819381C0
:1024700020E030E040E85FE30E94A204882344F4B7
:10248000FE01E75AFF4F81E090E09183808364C0B2
:10249000FE01E55AFF4F608171818281938120E0C6
:1024A0003FEF4FE757E40E94420418160CF043C078
:1024B000FE01E15AFF4F608171818281938120E0AA
:1024C00030E040E251E40E949C02DC01CB018E012D
:1024D000075A1F4FBC01CD010E94C600DC01CB0191
:1024E000F801918380831FC0FE01E95AFF4F89E103
:1024F00090E091838083FE01E95AFF4F80819181B2
:102500000197F1F7FE01E95AFF4F91838083DE01C5
:10251000A75ABF4FFE01E75AFF4F80819181019773
:1025200011969C938E93FE01E75AFF4F8081918113
:102530000097D1F627C08E01075A1F4FFE01E55ABA
:10254000FF4F60817181828193810E94C600DC010E
:10255000CB01F80191838083DE01AB5ABF4FFE01AE
:10256000E75AFF4F808191818D939C93FE01EB5A36
:10257000FF4F808191810197F1F7FE01EB5AFF4FE8
:102580009183808382E061E041E00E94EC08FE01DB
:10259000EF5AFF4F80E090E0A0E8BFE38083918393
:1025A000A283B3838E01035B1F4FFE01EF5AFF4FDF
:1025B000608171818281938120E030E04AE753E4B9
:1025C0000E949C02DC01CB01F80180839183A283ED
:1025D000B383FE01E35BFF4F608171818281938150
:1025E00020E030E040E85FE30E94A204882344F446
:1025F000FE01E55BFF4F81E090E09183808364C042
:10260000FE01E35BFF4F608171818281938120E055
:102610003FEF4FE757E40E94420418160CF043C006
:10262000FE01EF5AFF4F608171818281938120E02A
:1026300030E040E251E40E949C02DC01CB018E01BB
:10264000055B1F4FBC01CD010E94C600DC01CB0120
:10265000F801918380831FC0FE01E75BFF4F89E192
:1026600090E091838083FE01E75BFF4F8081918141
:102670000197F1F7FE01E75BFF4F91838083DE0155
:10268000A55BBF4FFE01E55BFF4F80819181019704
:1026900011969C938E93FE01E55BFF4F80819181A3
:1026A0000097D1F627C08E01055B1F4FFE01E35B4B
:1026B000FF4F60817181828193810E94C600DC019D
:1026C000CB01F80191838083DE01A95BBF4FFE013E
:1026D000E55BFF4F808191818D939C93FE01E95BC7
:1026E000FF4F808191810197F1F7FE01E95BFF4F78
:1026F00091838083FE01ED59FF4F8081882F90E008
:102700008071907095958795959587959595879506
:1027100095958795982F81E060E0492F0E94EC08FD
:10272000FE01ED59FF4F8081882F90E080729070FC
:102730009595879595958795959587959595879581
:1027400095958795982F81E061E0492F0E94EC08CC
:10275000FE01ED59FF4F8081882F90E080749070CA
:10276000082E892F000C881F990B000C881F991FB9
:10277000982F81E062E0492F0E94EC08FE01ED599C
:10278000FF4F8081982F991F9927991F81E063E05F
:10279000492F0E94EC08FE01ED5BFF4F80E090E0C6
:1027A000A0E8BFE380839183A283B3838E01015CA1
:1027B0001F4FFE01ED5BFF4F60817181828193812C
:1027C00020E030E04AE753E40E949C02DC01CB01A8
:1027D000F80180839183A283B383FE01FF96608119
:1027E00071818281938120E030E040E85FE30E94C4
:1027F000A20488232CF481E090E09EAF8DAF46C008
:10280000FE01FF96608171818281938120E03FEF1C
:102810004FE757E40E944204181664F5FE01ED5B91
:10282000FF4F608171818281938120E030E040E23E
:1028300051E40E949C02DC01CB01BC01CD010E944D
:10284000C600DC01CB019EAF8DAF0FC089E190E0E7
:102850009CAF8BAF8BAD9CAD0197F1F79CAF8BAF6D
:102860008DAD9EAD01979EAF8DAF8DAD9EAD0097A6
:1028700069F716C0FE01FF966081718182819381A4
:102880000E94C600DC01CB019EAF8DAF8DAD9EAD29
:102890009AAF89AF89AD9AAD0197F1F79AAF89AF39
:1028A00082E061E040E00E94EC0880E090E0A0E877
:1028B000BFE38DAB9EABAFABB8AF6DA97EA98FA9BF
:1028C00098AD20E030E04AE753E40E949C02DC012E
:1028D000CB0189AB9AABABABBCAB69A97AA98BA98D
:1028E0009CA920E030E040E85FE30E94A204882336
:1028F0002CF481E090E098AB8FA73FC069A97AA93A
:102900008BA99CA920E03FEF4FE757E40E944204C7
:1029100018164CF56DA97EA98FA998AD20E030E07E
:1029200040E251E40E949C02DC01CB01BC01CD01DC
:102930000E94C600DC01CB0198AB8FA70FC089E1D4
:1029400090E09EA78DA78DA59EA50197F1F79EA764
:102950008DA78FA598A9019798AB8FA78FA598A948
:10296000009769F714C069A97AA98BA99CA90E944C
:10297000C600DC01CB0198AB8FA78FA598A99CA7B7
:102980008BA78BA59CA50197F1F79CA78BA782E04D
:1029900061E041E00E94EC0880E090E0A0E8BFE345
:1029A0008FA398A7A9A7BAA76FA178A589A59AA56B
:1029B00020E030E04AE753E40E949C02DC01CB01B6
:1029C0008BA39CA3ADA3BEA36BA17CA18DA19EA153
:1029D00020E030E040E85FE30E94A20488232CF46A
:1029E00081E090E09AA389A33FC06BA17CA18DA157
:1029F0009EA120E03FEF4FE757E40E9442041816E3
:102A00004CF56FA178A589A59AA520E030E040E2B9
:102A100051E40E949C02DC01CB01BC01CD010E946B
:102A2000C600DC01CB019AA389A30FC089E190E025
:102A300098A38F8F8F8D98A10197F1F798A38F8F0F
:102A400089A19AA101979AA389A389A19AA1009724
:102A500069F714C06BA17CA18DA19EA10E94C60044
:102A6000DC01CB019AA389A389A19AA19E8F8D8FA6
:102A70008D8D9E8D0197F1F79E8F8D8FFE01ED5903
:102A8000FF4F8081982F917081E060E0492F0E9474
:102A9000EC08FE01ED59FF4F8081882F90E0827095
:102AA000907095958795982F81E061E0492F0E945D
:102AB000EC08FE01ED59FF4F8081882F90E0847073
:102AC00090709595879595958795982F81E062E010
:102AD000492F0E94EC08FE01ED59FF4F8081882F9D
:102AE00090E08870907095958795959587959595C8
:102AF0008795982F81E063E0492F0E94EC0880E0E1
:102B000090E0A0E8BFE3898F9A8FAB8FBC8F698D6F
:102B10007A8D8B8D9C8D20E030E04AE753E40E9453
:102B20009C02DC01CB018D8B9E8BAF8BB88F6D89A6
:102B30007E898F89988D20E030E040E85FE30E9435
:102B4000A20488232CF481E090E09C8B8B8B3FC007
:102B50006D897E898F89988D20E03FEF4FE757E49C
:102B60000E94420418164CF5698D7A8D8B8D9C8DD0
:102B700020E030E040E251E40E949C02DC01CB0105
:102B8000BC01CD010E94C600DC01CB019C8B8B8B6C
:102B90000FC089E190E09A8B898B89899A89019786
:102BA000F1F79A8B898B8B899C8901979C8B8B8BF6
:102BB0008B899C89009769F714C06D897E898F89FC
:102BC000988D0E94C600DC01CB019C8B8B8B8B897E
:102BD0009C89988B8F878F8598890197F1F7988BBF
:102BE0008F8782E061E040E00E94EC0880E090E0A6
:102BF000A0E8BFE38B879C87AD87BE876B857C850C
:102C00008D859E8520E030E04AE753E40E949C02D7
:102C1000DC01CB018F839887A987BA876F8178857C
:102C200089859A8520E030E040E85FE30E94A204B5
:102C300088232CF481E090E09E838D833FC06F81D8
:102C4000788589859A8520E03FEF4FE757E40E9419
:102C5000420418164CF56B857C858D859E8520E099
:102C600030E040E251E40E949C02DC01CB01BC0157
:102C7000CD010E94C600DC01CB019E838D830FC075
:102C800089E190E09C838B838B819C810197F1F794
:102C90009C838B838D819E8101979E838D838D8103
:102CA0009E81009769F714C06F81788589859A8520
:102CB0000E94C600DC01CB019E838D838D819E81A5
:102CC0009A83898389819A810197F1F79A8389830D
:102CD000CD59DF4F0FB6F894DEBF0FBECDBFCF91F9
:102CE000DF911F910F910895DF93CF9300D00F9242
:102CF000CDB7DEB79B838A8319820EC08981282FC6
:102D000030E08A819B81FC01E20FF31F80810E94E9
:102D1000F91189818F5F89838981282F30E08A8129
:102D20009B81FC01E20FF31F8081882339F70F900C
:102D30000F900F90CF91DF910895DF93CF9300D044
:102D400000D00F92CDB7DEB78A836B838A81282F9C
:102D500030E03D832C838C819D8181309105C1F0D1
:102D60002C813D81223031052CF48C819D8100978E
:102D700061F019C02C813D812230310569F08C81D0
:102D80009D818330910561F00EC08B8189830BC0DA
:102D90008B81805C898307C08B81805F898303C0BE
:102DA0008B81805B8983898180680E947E0D0F9072
:102DB0000F900F900F900F90CF91DF910895DF93B8
:102DC000CF9300D000D0CDB7DEB789836A835C8310
:102DD0004B8389816A810E949D168B819C810E9410
:102DE00074160F900F900F900F90CF91DF91089570
:102DF000DF93CF93CDB7DEB762970FB6F894DEBFFF
:102E00000FBECDBF9A8B898B89899A899E012F5FCE
:102E10003F4FB9014AE050E00E944B35CE01019688
:102E20000E94741662960FB6F894DEBF0FBECDBF37
:102E3000CF91DF910895DF93CF93CDB7DEB781E0D7
:102E40000E947E0DCF91DF9108950F931F93DF9322
:102E5000CF93CDB7DEB769970FB6F894DEBF0FBE3C
:102E6000CDBF6D8B7E8B8F8B988F498F898D282F4F
:102E700030E08D899E89AF89B88DBC01CD0145E0D8
:102E800050E0FE0131968F010E942A35CE01019655
:102E90000E94741669960FB6F894DEBF0FBECDBFC0
:102EA000CF91DF911F910F910895DF93CF9300D0C1
:102EB000CDB7DEB7198286E08A83CE0101960E94E3
:102EC00094070E94CC0CA4E3B0E0E4E3F0E080813E
:102ED00080618C93A7E3B0E0E7E3F0E08081806855
:102EE0008C93A4E3B0E0E4E3F0E08081806C8C9309
:102EF000A7E3B0E0E7E3F0E0808180618C93A4E396
:102F0000B0E0E4E3F0E0808184608C93A4E3B0E07F
:102F1000E4E3F0E0808188608C93A7E3B0E0E7E32E
:102F2000F0E0808181608C93A7E3B0E0E7E3F0E01C
:102F3000808182608C93A7E3B0E0E7E3F0E08081DA
:102F40008B7F8C93A7E3B0E0E7E3F0E08081877F9D
:102F50008C93A7E3B0E0E7E3F0E0808180688C9396
:102F6000A4E3B0E0E4E3F0E0808180628C93AAE324
:102F7000B0E0EAE3F0E0808180628C93A7E3B0E008
:102F8000E7E3F0E0808180628C93A7E3B0E0E7E3C1
:102F9000F0E0808180648C930E94CF17FDCFDF9397
:102FA000CF93CDB7DEB70E941B1780E690E00E945A
:102FB000741604C00E943F0B80932202809122026B
:102FC0008823C1F3809122028430A1F380912202F0
:102FD000813009F056C0109222020E941B178CE625
:102FE00090E00E94741604C00E943F0B809322025E
:102FF000809122028823C1F3809122028430A1F3C0
:10300000809122028130C1F4A8E3B0E0E8E3F0E06F
:1030100080818F778C93A5E3B0E0E5E3F0E08081D9
:103020008F7E8C93A8E3B0E0E8E3F0E080818F7EB0
:103030008C930E9455181BC0809122028230B9F4F3
:10304000A8E3B0E0E8E3F0E0808180688C93A5E33A
:10305000B0E0E5E3F0E080818F7E8C93A8E3B0E000
:10306000E8E3F0E0808180618C930E9455188091A4
:103070002202882321F480912202813011F00E94E3
:10308000CF1780912202823021F4109222020E94F6
:10309000A01CCF91DF910895DF93CF93CDB7DEB71A
:1030A0000E94CF17CF91DF910895DF93CF93CDB7D3
:1030B000DEB70E941B1786E790E00E94741604C0DA
:1030C0000E943F0B80932302809123028823C1F347
:1030D000809123028430A1F380912302813099F4FE
:1030E00010922302A5E3B0E0E5E3F0E080818F7B5E
:1030F0008C93A5E3B0E0E5E3F0E080818F778C93DB
:103100000E94CC1844C080912302823099F410921E
:103110002302A5E3B0E0E5E3F0E0808180648C93D6
:10312000A5E3B0E0E5E3F0E080818F778C930E9427
:10313000C1192DC080912302833099F4109223028B
:10314000A5E3B0E0E5E3F0E080818F7B8C93A5E31D
:10315000B0E0E5E3F0E0808180688C930E94B61ACD
:1031600016C080912302853091F410922302A5E3CA
:10317000B0E0E5E3F0E0808180648C93A5E3B0E00B
:10318000E5E3F0E0808180688C930E94AB1B0E9495
:103190005518CF91DF910895DF93CF93CDB7DEB768
:1031A0002E970FB6F894DEBF0FBECDBF0E941B173F
:1031B00085E890E00E94741680E090E0A8E4B3E413
:1031C0008B879C87AD87BE876B857C858D859E852B
:1031D00020E030E04AE753E40E949C02DC01CB018E
:1031E0008F839887A987BA876F81788589859A8523
:1031F00020E030E040E85FE30E94A20488232CF442
:1032000081E090E09E838D833FC06F8178858985C2
:103210009A8520E03FEF4FE757E40E9442041816DA
:103220004CF56B857C858D859E8520E030E040E205
:1032300051E40E949C02DC01CB01BC01CD010E9443
:10324000C600DC01CB019E838D830FC089E190E035
:103250009C838B838B819C810197F1F79C838B836B
:103260008D819E8101979E838D838D819E810097A4
:1032700069F714C06F81788589859A850E94C60098
:10328000DC01CB019E838D838D819E819A8389830E
:1032900089819A810197F1F79A8389830E941B178C
:1032A0005EC00E941B1780E00E94D107CC01A0E005
:1032B000B0E0BC01CD010E942605DC01CB0180936A
:1032C0002C0290932D02A0932E02B0932F02809196
:1032D0002C0290912D02A0912E02B0912F02BC01E0
:1032E000CD012AE038E240EA5BE30E949C02DC0167
:1032F000CB01BC01CD012FE832EC45E250E40E9445
:103300009C02DC01CB018093280290932902A093B8
:103310002A02B0932B028091280290912902A09159
:103320002A02B0912B02BC01CD0120E030E040E246
:1033300051E40E94720488232CF08BE890E00E94F4
:1033400074160DC08091280290912902A0912A0242
:10335000B0912B02BC01CD0142E00E9425170E94D2
:103360003F0B833209F09DCF109222020E94CF17AB
:103370002E960FB6F894DEBF0FBECDBFCF91DF9172
:103380000895DF93CF93CDB7DEB72E970FB6F8949D
:10339000DEBF0FBECDBF0E941B1788E990E00E94E0
:1033A000741680E090E0A8E4B3E48B879C87AD8737
:1033B000BE876B857C858D859E8520E030E04AE761
:1033C00053E40E949C02DC01CB018F839887A9877C
:1033D000BA876F81788589859A8520E030E040E85A
:1033E0005FE30E94A20488232CF481E090E09E8396
:1033F0008D833FC06F81788589859A8520E03FEF76
:103400004FE757E40E94420418164CF56B857C8503
:103410008D859E8520E030E040E251E40E949C02D0
:10342000DC01CB01BC01CD010E94C600DC01CB0157
:103430009E838D830FC089E190E09C838B838B8179
:103440009C810197F1F79C838B838D819E810197ED
:103450009E838D838D819E81009769F714C06F8153
:10346000788589859A850E94C600DC01CB019E8300
:103470008D838D819E819A83898389819A81019729
:10348000F1F79A8389830E941B175EC00E941B1765
:1034900080E00E94D107CC01A0E0B0E0BC01CD01EA
:1034A0000E942605DC01CB0180932C0290932D0213
:1034B000A0932E02B0932F0280912C0290912D02A6
:1034C000A0912E02B0912F02BC01CD012AE038E27A
:1034D00040EA5BE30E949C02DC01CB01BC01CD0110
:1034E0002FE832EC41E351E40E949C02DC01CB0165
:1034F0008093280290932902A0932A02B0932B0272
:103500008091280290912902A0912A02B0912B0269
:10351000BC01CD0120E030E048E452E40E94720496
:1035200088232CF08BE890E00E9474160DC08091E7
:10353000280290912902A0912A02B0912B02BC018D
:10354000CD0142E00E9425170E943F0B833209F013
:103550009DCF109222020E94CF172E960FB6F8949C
:10356000DEBF0FBECDBFCF91DF910895DF93CF9324
:10357000CDB7DEB72E970FB6F894DEBF0FBECDBF26
:103580000E941B178FE990E00E94741680E090E083
:10359000A8E4B3E48B879C87AD87BE876B857C8569
:1035A0008D859E8520E030E04AE753E40E949C022E
:1035B000DC01CB018F839887A987BA876F817885D3
:1035C00089859A8520E030E040E85FE30E94A2040C
:1035D00088232CF481E090E09E838D833FC06F812F
:1035E000788589859A8520E03FEF4FE757E40E9470
:1035F000420418164CF56B857C858D859E8520E0F0
:1036000030E040E251E40E949C02DC01CB01BC01AD
:10361000CD010E94C600DC01CB019E838D830FC0CB
:1036200089E190E09C838B838B819C810197F1F7EA
:103630009C838B838D819E8101979E838D838D8159
:103640009E81009769F714C06F81788589859A8576
:103650000E94C600DC01CB019E838D838D819E81FB
:103660009A83898389819A810197F1F79A83898363
:103670000E941B175EC00E941B1780E00E94D107AA
:10368000CC01A0E0B0E0BC01CD010E942605DC0128
:10369000CB0180932C0290932D02A0932E02B09325
:1036A0002F0280912C0290912D02A0912E02B091B8
:1036B0002F02BC01CD012AE038E240EA5BE30E9420
:1036C0009C02DC01CB01BC01CD012CEE31E54CECC0
:1036D00051E40E949C02DC01CB018093280290936C
:1036E0002902A0932A02B0932B0280912802909184
:1036F0002902A0912A02B0912B02BC01CD0120E049
:1037000030E048EC52E40E94720488232CF08BE8ED
:1037100090E00E9474160DC08091280290912902B9
:10372000A0912A02B0912B02BC01CD0142E00E947F
:1037300025170E943F0B833209F09DCF1092220281
:103740000E94CF172E960FB6F894DEBF0FBECDBFE6
:10375000CF91DF910895DF93CF93CDB7DEB72E974A
:103760000FB6F894DEBF0FBECDBF0E941B1785EACF
:1037700090E00E94741680E090E0A8E4B3E48B87A8
:103780009C87AD87BE876B857C858D859E8520E077
:1037900030E04AE753E40E949C02DC01CB018F83B6
:1037A0009887A987BA876F81788589859A8520E06F
:1037B00030E040E85FE30E94A20488232CF481E01B
:1037C00090E09E838D833FC06F81788589859A853F
:1037D00020E03FEF4FE757E40E94420418164CF5F3
:1037E0006B857C858D859E8520E030E040E251E44C
:1037F0000E949C02DC01CB01BC01CD010E94C600ED
:10380000DC01CB019E838D830FC089E190E09C8316
:103810008B838B819C810197F1F79C838B838D81B6
:103820009E8101979E838D838D819E81009769F78C
:1038300014C06F81788589859A850E94C600DC0155
:10384000CB019E838D838D819E819A83898389811B
:103850009A810197F1F79A8389830E941B175EC0B2
:103860000E941B1780E00E94D107CC01A0E0B0E0CD
:10387000BC01CD010E942605DC01CB0180932C0206
:1038800090932D02A0932E02B0932F0280912C02D0
:1038900090912D02A0912E02B0912F02BC01CD017A
:1038A0002AE038E240EA5BE30E949C02DC01CB01A3
:1038B000BC01CD0126E636E646E552E40E949C02B4
:1038C000DC01CB018093280290932902A0932A0265
:1038D000B0932B028091280290912902A0912A0294
:1038E000B0912B02BC01CD0120E030E048E453E46C
:1038F0000E94420418162CF48BE890E00E94741683
:103900000DC08091280290912902A0912A02B091C5
:103910002B02BC01CD0142E00E9425170E943F0B03
:10392000833209F09DCF109222020E94CF172E966B
:103930000FB6F894DEBF0FBECDBFCF91DF910895D3
:103940000F931F93DF93CF93CDB7DEB7CC59D14000
:103950000FB6F894DEBF0FBECDBF109222020E94B8
:103960001B178CEA90E00E94741604C00E943F0B63
:1039700080932202809122028823C1F38091220247
:103980008430A1F380912202813011F00C94292916
:103990000E941B1789EB90E00E947416809122020E
:1039A000882F90E0A0E0B0E0BC01CD010E94260588
:1039B000DC01CB01BC01CD0142E00E942517FE01D4
:1039C000ED56FE4F80E090E0A6E9B3E4808391835A
:1039D000A283B3838E0101571E4FFE01ED56FE4FA9
:1039E000608171818281938120E030E04AE753E475
:1039F0000E949C02DC01CB01F80180839183A283A9
:103A0000B383FE01E157FE4F608171818281938112
:103A100020E030E040E85FE30E94A204882344F401
:103A2000FE01E357FE4F81E090E09183808364C004
:103A3000FE01E157FE4F608171818281938120E018
:103A40003FEF4FE757E40E94420418160CF043C0C2
:103A5000FE01ED56FE4F608171818281938120E0ED
:103A600030E040E251E40E949C02DC01CB018E0177
:103A700003571E4FBC01CD010E94C600DC01CB01E3
:103A8000F801918380831FC0FE01E557FE4F89E155
:103A900090E091838083FE01E557FE4F8081918104
:103AA0000197F1F7FE01E557FE4F91838083DE0118
:103AB000A357BE4FFE01E357FE4F808191810197CE
:103AC00011969C938E93FE01E357FE4F8081918166
:103AD0000097D1F627C08E0103571E4FFE01E15714
:103AE000FE4F60817181828193810E94C600DC015A
:103AF000CB01F80191838083DE01A757BE4FFE0101
:103B0000E357FE4F808191818D939C93FE01E7578F
:103B1000FE4F808191810197F1F7FE01E757FE4F3B
:103B2000918380830E941B178FEB90E00E94741694
:103B3000FE01EB57FE4F80E090E0A8E4B3E4808301
:103B40009183A283B3838E010F571E4FFE01EB5763
:103B5000FE4F608171818281938120E030E04AE7ED
:103B600053E40E949C02DC01CB01F8018083918325
:103B7000A283B383FE01EF57FE4F60817181828182
:103B8000938120E030E040E85FE30E94A2048823B4
:103B900044F4FE01E158FE4F81E090E09183808380
:103BA00064C0FE01EF57FE4F608171818281938175
:103BB00020E03FEF4FE757E40E94420418160CF054
:103BC00043C0FE01EB57FE4F60817181828193817A
:103BD00020E030E040E251E40E949C02DC01CB0195
:103BE0008E0101581E4FBC01CD010E94C600DC01B0
:103BF000CB01F801918380831FC0FE01E358FE4F83
:103C000089E190E091838083FE01E358FE4F80813B
:103C100091810197F1F7FE01E358FE4F9183808374
:103C2000DE01A158BE4FFE01E158FE4F8081918117
:103C3000019711969C938E93FE01E158FE4F80816F
:103C400091810097D1F627C08E0101581E4FFE01C9
:103C5000EF57FE4F60817181828193810E94C6007F
:103C6000DC01CB01F80191838083DE01A558BE4FB2
:103C7000FE01E158FE4F808191818D939C93FE015E
:103C8000E558FE4F808191810197F1F7FE01E558DB
:103C9000FE4F9183808380E065E040E00E94EC0865
:103CA00081E065E040E00E94EC0881E066E041E0F0
:103CB0000E94EC08FE01E958FE4F80E090E0A8EC7D
:103CC000B2E480839183A283B3838E010D581E4F8B
:103CD000FE01E958FE4F608171818281938120E06D
:103CE00030E04AE753E40E949C02DC01CB01F8017A
:103CF00080839183A283B383FE01ED58FE4F6081E0
:103D000071818281938120E030E040E85FE30E948E
:103D1000A204882344F4FE01EF58FE4F81E090E0B6
:103D20009183808364C0FE01ED58FE4F60817181F4
:103D30008281938120E03FEF4FE757E40E944204E5
:103D400018160CF043C0FE01E958FE4F60817181E6
:103D50008281938120E030E040E251E40E949C02A5
:103D6000DC01CB018E010F581E4FBC01CD010E941A
:103D7000C600DC01CB01F801918380831FC0FE01E6
:103D8000E159FE4F89E190E091838083FE01E15982
:103D9000FE4F808191810197F1F7FE01E159FE4FBD
:103DA00091838083DE01AF58BE4FFE01EF58FE4F76
:103DB00080819181019711969C938E93FE01EF581B
:103DC000FE4F808191810097D1F627C08E010F5858
:103DD0001E4FFE01ED58FE4F6081718182819381FB
:103DE0000E94C600DC01CB01F80191838083DE01D3
:103DF000A359BE4FFE01EF58FE4F808191818D93F4
:103E00009C93FE01E359FE4F808191810197F1F768
:103E1000FE01E359FE4F9183808381E00E94D10728
:103E2000CC01A0E0B0E0BC01CD010E942605DC0180
:103E3000CB018093300290933102A0933202B09371
:103E400033020E941B178CEC90E00E947416809144
:103E5000300290913102A0913202B0913302BC0144
:103E6000CD0142E00E942517FE01E759FE4F80E098
:103E700090E0AAE7B4E480839183A283B3838E01A8
:103E80000B591E4FFE01E759FE4F608171818281FF
:103E9000938120E030E04AE753E40E949C02DC0179
:103EA000CB01F80180839183A283B383FE01EB5998
:103EB000FE4F608171818281938120E030E040E893
:103EC0005FE30E94A204882344F4FE01ED59FE4FF3
:103ED00081E090E09183808364C0FE01EB59FE4F46
:103EE000608171818281938120E03FEF4FE757E449
:103EF0000E94420418160CF043C0FE01E759FE4F21
:103F0000608171818281938120E030E040E251E460
:103F10000E949C02DC01CB018E010D591E4FBC0199
:103F2000CD010E94C600DC01CB01F80191838083A2
:103F30001FC0FE01EF59FE4F89E190E0918380831D
:103F4000FE01EF59FE4F808191810197F1F7FE014B
:103F5000EF59FE4F91838083DE01AD59BE4FFE01C4
:103F6000ED59FE4F80819181019711969C938E931C
:103F7000FE01ED59FE4F808191810097D1F627C057
:103F80008E010D591E4FFE01EB59FE4F608171816C
:103F9000828193810E94C600DC01CB01F8019183EC
:103FA0008083DE01A15ABE4FFE01ED59FE4F808194
:103FB00091818D939C93FE01E15AFE4F8081918106
:103FC0000197F1F7FE01E15AFE4F918380838091C2
:103FD000300290913102A0913202B0913302BC01C3
:103FE000CD0120E030E044EB52E40E9472048823CB
:103FF0000CF4B9C10E941B1781ED90E00E94741669
:10400000FE01E55AFE4F80E090E0AAE7B4E4808329
:104010009183A283B3838E01095A1E4FFE01E55A94
:10402000FE4F608171818281938120E030E04AE718
:1040300053E40E949C02DC01CB01F8018083918350
:10404000A283B383FE01E95AFE4F608171818281B0
:10405000938120E030E040E85FE30E94A2048823DF
:1040600044F4FE01EB5AFE4F81E090E0918380839F
:1040700064C0FE01E95AFE4F6081718182819381A3
:1040800020E03FEF4FE757E40E94420418160CF07F
:1040900043C0FE01E55AFE4F6081718182819381A8
:1040A00020E030E040E251E40E949C02DC01CB01C0
:1040B0008E010B5A1E4FBC01CD010E94C600DC01CF
:1040C000CB01F801918380831FC0FE01ED5AFE4FA2
:1040D00089E190E091838083FE01ED5AFE4F80815B
:1040E00091810197F1F7FE01ED5AFE4F9183808394
:1040F000DE01AB5ABE4FFE01EB5AFE4F808191812B
:10410000019711969C938E93FE01EB5AFE4F80818E
:1041100091810097D1F627C08E010B5A1E4FFE01E8
:10412000E95AFE4F60817181828193810E94C600AD
:10413000DC01CB01F80191838083DE01AF5ABE4FD1
:10414000FE01EB5AFE4F808191818D939C93FE017D
:10415000EF5AFE4F808191810197F1F7FE01EF5AEE
:10416000FE4F918380838091300290913102A09123
:104170003202B0913302BC01CD012AE038E240EABC
:104180005BE30E949C02DC01CB0180933802909398
:104190003902A0933A02B0933B0280913802909189
:1041A0003902A0913A02B0913B02BC01CD0120E05E
:1041B00030E040E850E40E949603DC01CB0180939C
:1041C000240290932502A0932602B09327020E9416
:1041D0001B178BED90E00E94741680912402909141
:1041E0002502A0912602B0912702BC01CD0145E035
:1041F0000E942517FE01E35BFE4F80E090E0AAE7F6
:10420000B4E480839183A283B3838E01075B1E4F46
:10421000FE01E35BFE4F608171818281938120E02A
:1042200030E04AE753E40E949C02DC01CB01F80134
:1042300080839183A283B383FE01E75BFE4F60819D
:1042400071818281938120E030E040E85FE30E9449
:10425000A204882344F4FE01E95BFE4F81E090E074
:104260009183808364C0FE01E75BFE4F60817181B2
:104270008281938120E03FEF4FE757E40E944204A0
:1042800018160CF043C0FE01E35BFE4F60817181A4
:104290008281938120E030E040E251E40E949C0260
:1042A000DC01CB018E01095B1E4FBC01CD010E94D8
:1042B000C600DC01CB01F801918380831FC0FE01A1
:1042C000EB5BFE4F89E190E091838083FE01EB5B25
:1042D000FE4F808191810197F1F7FE01EB5BFE4F6C
:1042E00091838083DE01A95BBE4FFE01E95BFE4F37
:1042F00080819181019711969C938E93FE01E95BD9
:10430000FE4F808191810097D1F627C08E01095B15
:104310001E4FFE01E75BFE4F6081718182819381B8
:104320000E94C600DC01CB01F80191838083DE018D
:10433000AD5BBE4FFE01E95BFE4F808191818D93A5
:104340009C93FE01ED5BFE4F808191810197F1F717
:10435000FE01ED5BFE4F918380830E941B1710923C
:1043600022020C94E7340E941B1780EE90E00E941A
:104370007416FE01E15CFE4F80E090E0A8E4B3E437
:1043800080839183A283B3838E01055C1E4FFE015F
:10439000E15CFE4F608171818281938120E030E099
:1043A0004AE753E40E949C02DC01CB01F8018083C0
:1043B0009183A283B383FE01E55CFE4F608171812E
:1043C0008281938120E030E040E85FE30E94A20414
:1043D000882344F4FE01E75CFE4F81E090E0918386
:1043E000808364C0FE01E55CFE4F60817181828143
:1043F000938120E03FEF4FE757E40E9442041816F4
:104400000CF043C0FE01E15CFE4F6081718182814E
:10441000938120E030E040E251E40E949C02DC0104
:10442000CB018E01075C1E4FBC01CD010E94C6006E
:10443000DC01CB01F801918380831FC0FE01E95CA0
:10444000FE4F89E190E091838083FE01E95CFE4F9D
:10445000808191810197F1F7FE01E95CFE4F918324
:104460008083DE01A75CBE4FFE01E75CFE4F8081CA
:104470009181019711969C938E93FE01E75CFE4F0C
:10448000808191810097D1F627C08E01075C1E4F75
:10449000FE01E55CFE4F60817181828193810E9403
:1044A000C600DC01CB01F80191838083DE01AB5CA7
:1044B000BE4FFE01E75CFE4F808191818D939C93FE
:1044C000FE01EB5CFE4F808191810197F1F7FE01C7
:1044D000EB5CFE4F9183808380E065E040E00E94CA
:1044E000EC0881E065E041E00E94EC0881E066E0D4
:1044F00040E00E94EC08FE01EF5CFE4F80E090E09F
:10450000A8ECB2E480839183A283B3838E01035D20
:104510001E4FFE01EF5CFE4F6081718182819381AD
:1045200020E030E04AE753E40E949C02DC01CB012A
:10453000F80180839183A283B383FE01E35DFE4F84
:10454000608171818281938120E030E040E85FE307
:104550000E94A204882344F4FE01E55DFE4F81E041
:1045600090E09183808364C0FE01E35DFE4F608133
:1045700071818281938120E03FEF4FE757E40E94F1
:10458000420418160CF043C0FE01EF5CFE4F608140
:1045900071818281938120E030E040E251E40E9409
:1045A0009C02DC01CB018E01055D1E4FBC01CD01DB
:1045B0000E94C600DC01CB01F801918380831FC0FB
:1045C000FE01E75DFE4F89E190E091838083FE016B
:1045D000E75DFE4F808191810197F1F7FE01E75D74
:1045E000FE4F91838083DE01A55DBE4FFE01E55D38
:1045F000FE4F80819181019711969C938E93FE01CD
:10460000E55DFE4F808191810097D1F627C08E0134
:10461000055D1E4FFE01E35DFE4F60817181828169
:1046200093810E94C600DC01CB01F8019183808355
:10463000DE01A95DBE4FFE01E55DFE4F80819181E7
:104640008D939C93FE01E95DFE4F808191810197DE
:10465000F1F7FE01E95DFE4F9183808381E00E94C6
:10466000D107CC01A0E0B0E0BC01CD010E9426053D
:10467000DC01CB018093300290933102A09332028F
:10468000B09333020E941B178CEC90E00E947416CA
:104690008091300290913102A0913202B0913302A8
:1046A000BC01CD0142E00E942517FE01ED5DFE4FE9
:1046B00080E090E0AAE7B4E480839183A283B3838F
:1046C0008E01015E1E4FFE01ED5DFE4F6081718126
:1046D0008281938120E030E04AE753E40E949C020B
:1046E000DC01CB01F80180839183A283B383FE01B7
:1046F000E15EFE4F608171818281938120E030E034
:1047000040E85FE30E94A204882344F4FE01E35ED4
:10471000FE4F81E090E09183808364C0FE01E15E02
:10472000FE4F608171818281938120E03FEF4FE7EE
:1047300057E40E94420418160CF043C0FE01ED5DE0
:10474000FE4F608171818281938120E030E040E200
:1047500051E40E949C02DC01CB018E01035E1E4FDE
:10476000BC01CD010E94C600DC01CB01F8019183A0
:1047700080831FC0FE01E55EFE4F89E190E09183DA
:104780008083FE01E55EFE4F808191810197F1F704
:10479000FE01E55EFE4F91838083DE01A35EBE4F86
:1047A000FE01E35EFE4F80819181019711969C93FB
:1047B0008E93FE01E35EFE4F808191810097D1F6DA
:1047C00027C08E01035E1E4FFE01E15EFE4F608139
:1047D0007181828193810E94C600DC01CB01F801C6
:1047E00091838083DE01A75EBE4FFE01E35EFE4F34
:1047F000808191818D939C93FE01E75EFE4F8081C5
:1048000091810197F1F7FE01E75EFE4F918380836E
:104810008091300290913102A0913202B091330226
:10482000BC01CD0120E030E048EC52E40E9472046B
:1048300088230CF4B9C10E941B178DEE90E00E94F2
:104840007416FE01EB5EFE4F80E090E0A8E4B3E456
:1048500080839183A283B3838E010F5E1E4FFE017E
:10486000EB5EFE4F608171818281938120E030E0B8
:104870004AE753E40E949C02DC01CB01F8018083EB
:104880009183A283B383FE01EF5EFE4F608171814D
:104890008281938120E030E040E85FE30E94A2043F
:1048A000882344F4FE01E15FFE4F81E090E09183B4
:1048B000808364C0FE01EF5EFE4F60817181828162
:1048C000938120E03FEF4FE757E40E94420418161F
:1048D0000CF043C0FE01EB5EFE4F6081718182816E
:1048E000938120E030E040E251E40E949C02DC0130
:1048F000CB018E01015F1E4FBC01CD010E94C6009D
:10490000DC01CB01F801918380831FC0FE01E35FCE
:10491000FE4F89E190E091838083FE01E35FFE4FCB
:10492000808191810197F1F7FE01E35FFE4F918352
:104930008083DE01A15FBE4FFE01E15FFE4F8081FB
:104940009181019711969C938E93FE01E15FFE4F3A
:10495000808191810097D1F627C08E01015F1E4FA3
:10496000FE01EF5EFE4F60817181828193810E9422
:10497000C600DC01CB01F80191838083DE01A55FD5
:10498000BE4FFE01E15FFE4F808191818D939C932C
:10499000FE01E55FFE4F808191810197F1F7FE01F5
:1049A000E55FFE4F918380838091300290913102C8
:1049B000A0913202B0913302BC01CD012AE038E26D
:1049C00040EA5BE30E949C02DC01CB018093380249
:1049D00090933902A0933A02B0933B02809138023F
:1049E00090913902A0913A02B0913B02BC01CD01F5
:1049F00020E030E044E352E40E949603DC01CB0166
:104A00008093240290932502A0932602B09327025C
:104A10000E941B178BED90E00E9474168091240277
:104A200090912502A0912602B0912702BC01CD01F0
:104A300045E00E942517FE01E95FFE4F80E090E00F
:104A4000AAE7B4E480839183A283B3838E010D5FD0
:104A50001E4FFE01E95FFE4F60817181828193816B
:104A600020E030E04AE753E40E949C02DC01CB01E5
:104A7000F80180839183A283B383FE01ED5FFE4F33
:104A8000608171818281938120E030E040E85FE3C2
:104A90000E94A204882344F4FE01EF5FFE4F81E0F0
:104AA00090E09183808364C0FE01ED5FFE4F6081E2
:104AB00071818281938120E03FEF4FE757E40E94AC
:104AC000420418160CF043C0FE01E95FFE4F6081FE
:104AD00071818281938120E030E040E251E40E94C4
:104AE0009C02DC01CB018E010F5F1E4FBC01CD018A
:104AF0000E94C600DC01CB01F801918380831FC0B6
:104B0000FE01E150FF4F89E190E091838083FE0137
:104B1000E150FF4F808191810197F1F7FE01E15053
:104B2000FF4F91838083DE01AF5FBE4FFE01EF5FD9
:104B3000FE4F80819181019711969C938E93FE0187
:104B4000EF5FFE4F808191810097D1F627C08E01E3
:104B50000F5F1E4FFE01ED5FFE4F6081718182810C
:104B600093810E94C600DC01CB01F8019183808310
:104B7000DE01A350BF4FFE01EF5FFE4F80819181A8
:104B80008D939C93FE01E350FF4F808191810197AB
:104B9000F1F7FE01E350FF4F918380830E941B17C2
:104BA000109222020C94E7340E941B1787EF90E0CA
:104BB0000E947416FE01E750FF4F80E090E0A8E4E9
:104BC000B3E480839183A283B3838E010B501F4F84
:104BD000FE01E750FF4F608171818281938120E067
:104BE00030E04AE753E40E949C02DC01CB01F8016B
:104BF00080839183A283B383FE01EB50FF4F6081DA
:104C000071818281938120E030E040E85FE30E947F
:104C1000A204882344F4FE01ED50FF4F81E090E0B0
:104C20009183808364C0FE01EB50FF4F60817181EE
:104C30008281938120E03FEF4FE757E40E944204D6
:104C400018160CF043C0FE01E750FF4F60817181E0
:104C50008281938120E030E040E251E40E949C0296
:104C6000DC01CB018E010D501F4FBC01CD010E9414
:104C7000C600DC01CB01F801918380831FC0FE01D7
:104C8000EF50FF4F89E190E091838083FE01EF5068
:104C9000FF4F808191810197F1F7FE01EF50FF4FA7
:104CA00091838083DE01AD50BF4FFE01ED50FF4F79
:104CB00080819181019711969C938E93FE01ED5016
:104CC000FF4F808191810097D1F627C08E010D5052
:104CD0001F4FFE01EB50FF4F6081718182819381F4
:104CE0000E94C600DC01CB01F80191838083DE01C4
:104CF000A151BF4FFE01ED50FF4F808191818D93F7
:104D00009C93FE01E151FF4F808191810197F1F762
:104D1000FE01E151FF4F9183808380E065E041E037
:104D20000E94EC0881E065E040E00E94EC0881E030
:104D300066E040E00E94EC08FE01E551FF4F80E094
:104D400090E0A8ECB2E480839183A283B3838E01C8
:104D500009511F4FFE01E551FF4F60817181828132
:104D6000938120E030E04AE753E40E949C02DC019A
:104D7000CB01F80180839183A283B383FE01E951C3
:104D8000FF4F608171818281938120E030E040E8B3
:104D90005FE30E94A204882344F4FE01EB51FF4F1D
:104DA00081E090E09183808364C0FE01E951FF4F70
:104DB000608171818281938120E03FEF4FE757E46A
:104DC0000E94420418160CF043C0FE01E551FF4F4B
:104DD000608171818281938120E030E040E251E482
:104DE0000E949C02DC01CB018E010B511F4FBC01C4
:104DF000CD010E94C600DC01CB01F80191838083C4
:104E00001FC0FE01ED51FF4F89E190E09183808347
:104E1000FE01ED51FF4F808191810197F1F7FE0175
:104E2000ED51FF4F91838083DE01AB51BF4FFE01F7
:104E3000EB51FF4F80819181019711969C938E9346
:104E4000FE01EB51FF4F808191810097D1F627C081
:104E50008E010B511F4FFE01E951FF4F608171819F
:104E6000828193810E94C600DC01CB01F80191830D
:104E70008083DE01AF51BF4FFE01EB51FF4F8081B8
:104E800091818D939C93FE01EF51FF4F8081918121
:104E90000197F1F7FE01EF51FF4F9183808381E08D
:104EA0000E94D107CC01A0E0B0E0BC01CD010E947E
:104EB0002605DC01CB018093300290933102A09350
:104EC0003202B09333020E941B178CEC90E00E94D8
:104ED00074168091300290913102A0913202B0910B
:104EE0003302BC01CD0142E00E942517FE01E352CE
:104EF000FF4F80E090E0AAE7B4E480839183A2832F
:104F0000B3838E0107521F4FFE01E352FF4F6081B2
:104F100071818281938120E030E04AE753E40E946E
:104F20009C02DC01CB01F80180839183A283B383CF
:104F3000FE01E752FF4F608171818281938120E001
:104F400030E040E85FE30E94A204882344F4FE01BD
:104F5000E952FF4F81E090E09183808364C0FE01BD
:104F6000E752FF4F608171818281938120E03FEFA2
:104F70004FE757E40E94420418160CF043C0FE01AC
:104F8000E352FF4F608171818281938120E030E0A4
:104F900040E251E40E949C02DC01CB018E010952E7
:104FA0001F4FBC01CD010E94C600DC01CB01F801FE
:104FB000918380831FC0FE01EB52FF4F89E190E097
:104FC00091838083FE01EB52FF4F80819181019795
:104FD000F1F7FE01EB52FF4F91838083DE01A9526E
:104FE000BF4FFE01E952FF4F8081918101971196D9
:104FF0009C938E93FE01E952FF4F8081918100972F
:10500000D1F627C08E0109521F4FFE01E752FF4F14
:1050100060817181828193810E94C600DC01CB0195
:10502000F80191838083DE01AD52BF4FFE01E9524A
:10503000FF4F808191818D939C93FE01ED52FF4F34
:10504000808191810197F1F7FE01ED52FF4F91832D
:1050500080838091300290913102A0913202B09110
:105060003302BC01CD012AE038E240EA5BE30E9452
:105070009C02DC01CB018093380290933902A0930B
:105080003A02B0933B028091380290913902A0918C
:105090003A02B0913B02BC01CD0120E030E041EE8C
:1050A00053E40E949603DC01CB0180932402909389
:1050B0002502A0932602B09327020E941B178BEDB6
:1050C00090E00E9474168091240290912502A09194
:1050D0002602B0912702BC01CD0145E00E942517B0
:1050E000FE01E153FF4F80E090E0AAE7B4E4808343
:1050F0009183A283B3838E0105531F4FFE01E153B9
:10510000FF4F608171818281938120E030E04AE726
:1051100053E40E949C02DC01CB01F801808391835F
:10512000A283B383FE01E553FF4F608171818281C9
:10513000938120E030E040E85FE30E94A2048823EE
:1051400044F4FE01E753FF4F81E090E091838083B8
:1051500064C0FE01E553FF4F6081718182819381BC
:1051600020E03FEF4FE757E40E94420418160CF08E
:1051700043C0FE01E153FF4F6081718182819381C1
:1051800020E030E040E251E40E949C02DC01CB01CF
:105190008E0107531F4FBC01CD010E94C600DC01E8
:1051A000CB01F801918380831FC0FE01E953FF4FBB
:1051B00089E190E091838083FE01E953FF4F808174
:1051C00091810197F1F7FE01E953FF4F91838083AD
:1051D000DE01A753BF4FFE01E753FF4F808191814E
:1051E000019711969C938E93FE01E753FF4F8081A8
:1051F00091810097D1F627C08E0107531F4FFE0102
:10520000E553FF4F60817181828193810E94C600C6
:10521000DC01CB01F80191838083DE01AB53BF4FEA
:10522000FE01E753FF4F808191818D939C93FE0196
:10523000EB53FF4F808191810197F1F7FE01EB5312
:10524000FF4F918380830E941B17109222020C94BF
:10525000E73480912202823011F00C94E1341092F4
:1052600022020E941B1781E091E00E94741604C084
:105270000E943F0B80932202809122028823C1F377
:10528000809122028430A1F30E941B1789EB90E0E9
:105290000E94741680912202882F90E0A0E0B0E076
:1052A000BC01CD010E942605DC01CB01BC01CD0172
:1052B00042E00E942517FE01EF53FF4F80E090E08F
:1052C000AAEFB3E480839183A283B3838E01035456
:1052D0001F4FFE01EF53FF4F6081718182819381E7
:1052E00020E030E04AE753E40E949C02DC01CB015D
:1052F000F80180839183A283B383FE01E354FF4FBF
:10530000608171818281938120E030E040E85FE339
:105310000E94A204882344F4FE01E554FF4F81E07B
:1053200090E09183808364C0FE01E354FF4F60816D
:1053300071818281938120E03FEF4FE757E40E9423
:10534000420418160CF043C0FE01EF53FF4F60817A
:1053500071818281938120E030E040E251E40E943B
:105360009C02DC01CB018E0105541F4FBC01CD0115
:105370000E94C600DC01CB01F801918380831FC02D
:10538000FE01E754FF4F89E190E091838083FE01A5
:10539000E754FF4F808191810197F1F7FE01E754B7
:1053A000FF4F91838083DE01A554BF4FFE01E5547A
:1053B000FF4F80819181019711969C938E93FE01FE
:1053C000E554FF4F808191810097D1F627C08E016F
:1053D00005541F4FFE01E354FF4F608171818281AC
:1053E00093810E94C600DC01CB01F8019183808388
:1053F000DE01A954BF4FFE01E554FF4F808191812A
:105400008D939C93FE01E954FF4F80819181019718
:10541000F1F7FE01E954FF4F918380830E941B172F
:1054200080912202813009F071C487EF90E00E94E0
:105430007416FE01ED54FF4F80E090E0AAEFB3E454
:1054400080839183A283B3838E0101551F4FFE0198
:10545000ED54FF4F608171818281938120E030E0C3
:105460004AE753E40E949C02DC01CB01F8018083EF
:105470009183A283B383FE01E155FF4F6081718167
:105480008281938120E030E040E85FE30E94A20443
:10549000882344F4FE01E355FF4F81E090E09183BF
:1054A000808364C0FE01E155FF4F6081718182817C
:1054B000938120E03FEF4FE757E40E944204181623
:1054C0000CF043C0FE01ED54FF4F60817181828179
:1054D000938120E030E040E251E40E949C02DC0134
:1054E000CB018E0103551F4FBC01CD010E94C600A8
:1054F000DC01CB01F801918380831FC0FE01E555DB
:10550000FF4F89E190E091838083FE01E555FF4FD5
:10551000808191810197F1F7FE01E555FF4F91835D
:105520008083DE01A355BF4FFE01E355FF4F80810D
:105530009181019711969C938E93FE01E355FF4F45
:10554000808191810097D1F627C08E0103551F4FAE
:10555000FE01E155FF4F60817181828193810E943C
:10556000C600DC01CB01F80191838083DE01A755E1
:10557000BF4FFE01E355FF4F808191818D939C9336
:10558000FE01E755FF4F808191810197F1F7FE0100
:10559000E755FF4F918380830E941B1781E060E0F5
:1055A00041E00E94EC0881E061E040E00E94EC08EC
:1055B000FE01EB55FF4F80E090E0A8ECB2E4808361
:1055C0009183A283B3838E010F551F4FFE01EB55CC
:1055D000FF4F608171818281938120E030E04AE752
:1055E00053E40E949C02DC01CB01F801808391838B
:1055F000A283B383FE01EF55FF4F608171818281E9
:10560000938120E030E040E85FE30E94A204882319
:1056100044F4FE01E156FF4F81E090E091838083E6
:1056200064C0FE01EF55FF4F6081718182819381DB
:1056300020E03FEF4FE757E40E94420418160CF0B9
:1056400043C0FE01EB55FF4F6081718182819381E0
:1056500020E030E040E251E40E949C02DC01CB01FA
:105660008E0101561F4FBC01CD010E94C600DC0116
:10567000CB01F801918380831FC0FE01E356FF4FE9
:1056800089E190E091838083FE01E356FF4F8081A2
:1056900091810197F1F7FE01E356FF4F91838083DB
:1056A000DE01A156BF4FFE01E156FF4F808191817F
:1056B000019711969C938E93FE01E156FF4F8081D6
:1056C00091810097D1F627C08E0101561F4FFE0130
:1056D000EF55FF4F60817181828193810E94C600E6
:1056E000DC01CB01F80191838083DE01A556BF4F19
:1056F000FE01E156FF4F808191818D939C93FE01C5
:10570000E556FF4F808191810197F1F7FE01E55643
:10571000FF4F9183808381E00E94D107CC01A0E0FC
:10572000B0E0BC01CD010E942605DC01CB018093D5
:10573000300290933102A0933202B09333028091F1
:10574000300290913102A0913202B09133028093E5
:10575000340290933502A0933602B0933702FE01D3
:10576000E556FE4F11821082F9C081E00E94D107F8
:10577000CC01A0E0B0E0BC01CD010E942605DC0117
:10578000CB018093300290933102A0933202B09308
:105790003302FE01E956FF4F80E090E0A0E8BFE34E
:1057A00080839183A283B3838E010D561F4FFE0128
:1057B000E956FF4F608171818281938120E030E062
:1057C0004AE753E40E949C02DC01CB01F80180838C
:1057D0009183A283B383FE01ED56FF4F60817181F7
:1057E0008281938120E030E040E85FE30E94A204E0
:1057F000882344F4FE01EF56FF4F81E090E091834F
:10580000808364C0FE01ED56FF4F6081718182810B
:10581000938120E03FEF4FE757E40E9442041816BF
:105820000CF043C0FE01E956FF4F60817181828117
:10583000938120E030E040E251E40E949C02DC01D0
:10584000CB018E010F561F4FBC01CD010E94C60037
:10585000DC01CB01F801918380831FC0FE01E15779
:10586000FF4F89E190E091838083FE01E157FF4F74
:10587000808191810197F1F7FE01E157FF4F9183FC
:105880008083DE01AF56BF4FFE01EF56FF4F808190
:105890009181019711969C938E93FE01EF56FF4FD5
:1058A000808191810097D1F627C08E010F561F4F3E
:1058B000FE01ED56FF4F60817181828193810E94CC
:1058C000C600DC01CB01F80191838083DE01A35780
:1058D000BF4FFE01EF56FF4F808191818D939C93C6
:1058E000FE01E357FF4F808191810197F1F7FE019F
:1058F000E357FF4F91838083809130029091310272
:10590000A0913202B09133022091340230913502DD
:105910004091360250913702BC01CD010E944204F1
:10592000181684F48091300290913102A0913202D5
:10593000B09133028093340290933502A0933602E3
:10594000B0933702DE01A556BE4FFE01E556FE4F6D
:1059500080819181019611969C938E93FE01E5566C
:10596000FE4F80819181F1E0843F9F070CF4FDCED2
:105970008091340290913502A0913602B0913702A5
:105980008093300290933102A0933202B09333029D
:105990008091300290913102A0913202B091330295
:1059A000BC01CD0142E00E942517FE01E757FF4FE1
:1059B00080E090E0AAEFB3E480839183A283B38375
:1059C0008E010B571F4FFE01E757FF4F608171811A
:1059D0008281938120E030E04AE753E40E949C02F8
:1059E000DC01CB01F80180839183A283B383FE01A4
:1059F000EB57FF4F608171818281938120E030E01D
:105A000040E85FE30E94A204882344F4FE01ED57BE
:105A1000FF4F81E090E09183808364C0FE01EB57EB
:105A2000FF4F608171818281938120E03FEF4FE7DA
:105A300057E40E94420418160CF043C0FE01E757D9
:105A4000FF4F608171818281938120E030E040E2EC
:105A500051E40E949C02DC01CB018E010D571F4FC7
:105A6000BC01CD010E94C600DC01CB01F80191838D
:105A700080831FC0FE01EF57FF4F89E190E09183C3
:105A80008083FE01EF57FF4F808191810197F1F7ED
:105A9000FE01EF57FF4F91838083DE01AD57BF4F6B
:105AA000FE01ED57FF4F80819181019711969C93E4
:105AB0008E93FE01ED57FF4F808191810097D1F6C3
:105AC00027C08E010D571F4FFE01EB57FF4F60811E
:105AD0007181828193810E94C600DC01CB01F801B3
